:020000020000FC
:0E00000012C01895189518951895FCC5C7C123
:10001000189518951895F5C3CAC085C318951895F5
:1000200018951895189502E00EBF0FE50DBF0EE765
:1000300001BF00E808BD000000E008BD58E780E609
:1000400008E0E02E6624552407E008BB06E006B968
:1000500002E007B900E003B901B905D5BB27A0E666
:100060000C93A395A03E09F0FBCF0FEF0093850002
:1000700000000093840000000EE100937600000071
:100080000FEF0093860000000FE500938E00000044
:10009000002700938F00000000E00BBF05BB00E1CC
:1000A00002B900E103BF0BE003BF06E809BF00E8A7
:1000B00008B967D307E00FBD12DA0DEF202E00EB71
:1000C000302EBD9A8ADA789400C000917500000045
:1000D0000F3F09F002C062D325C0523018F157FD1E
:1000E000F4CF56FD05C055FD03C054FD01C0EDCF52
:1000F00007B10030B1F0073809F00EC0D098D198A0
:10010000BB98D398D498D598D69850680EE806B97D
:1001100008E605BF8895D9CF50680EE806B90EEC01
:1001200006B9D3CF0AED02BF00E00EBD0FE006BF57
:10013000C29AC19AC09A84D400E007B904EF05BFFF
:1001400000EF05BF889500E006BFBFCF0FEF202E60
:1001500005ED302E19D0089507EF202E05ED302E35
:1001600013D008950FEF202E05E9302E0DD00895FD
:1001700007EF202E05E9302E07D0089508E9202E3C
:1001800000EC302E01D00895009176000E3161F020
:100190000395009376000000002700939100000073
:1001A0000093900000000895BD9A526008950F9347
:1001B0001F936F936FB7A8950EE401BDA89500E05B
:1001C0000BBF02E0C016B9F010917800000004E601
:1001D000100F009168000000011708F00CC000919A
:1001E0008F00000000939100000005E00093900054
:1001F0000000C4DFBEC001E08016A0F100918700BE
:100200000000043610F5009187000000080DD0169C
:1002100068F000C000918F00000000939100000082
:1002200001E000939000000091DFA3C0D814D0F04B
:1002300000C000918F00000000939100000002E0D8
:1002400000939000000088DF94C0D81418F7009144
:100250008700000001952F93282D201B022F2F913E
:10026000D01638F701E0901608F001C055C0009193
:1002700087000000043608F401C035C01F931D2D0F
:1002800001E0F01608F01395911608F002C01F91D6
:1002900043C02F9300918700292D201710F0201BB9
:1002A00003C020E0211788F4211708F40EC02F9115
:1002B0001F9100918F00000000939100000003E067
:1002C0000093900000004EDF54C02F911F910091C9
:1002D0008F00000000939100000004E00093900064
:1002E000000046DF46C00F2D013018F00D2D03959C
:1002F00002C00D2D00C09016E0F62F931F93292DFC
:10030000109187001195210F201718F41F912F913C
:1003100003C01F912F91DBCF0091910000000030AE
:10032000E1F00A9500939100000000919000000018
:10033000013049F0023049F0033049F0043049F00F
:10034000053049F00AC002DF14C006DF12C00ADF20
:1003500010C00EDF0EC012DF0CC0BD985D7F0EEF27
:10036000202E0EE1009376000000002700939000FD
:1003700000000091860000000D3630F400EF202EC2
:1003800000EE302EBD9A5260506253FD02C008E06C
:10039000502E6FBF6F911F910F9118950F936F9310
:1003A0006FB751FD07C052FD05C053FD03C00CEFF0
:1003B00002BF02C00AED02BF1F932F93109181006C
:1003C0000000183AB1F11E3F09F003C00EEF202ED5
:1003D000BD980E2D013008F007C0133E09F004C08F
:1003E00018EA1093810025C0A8951E3F91F0173F91
:1003F00029F0163F99F01D3EE9F05BC0933409F0F7
:1004000058C00FE2602E00EF202E00E9302EBD9A7A
:1004100050C002E207B900E003B94BC0BD98A895EF
:10042000C09AC198C29ABB9A09EA07B900E103B918
:1004300040C04DC0A895C09AC19AC298009168006A
:100440000000043678F0093CB8F00D3DF8F40027C0
:10045000E02ED898D998C398DB98DC98DD98DE9A7E
:10046000DF9A26C0D89AD998C398DB9ADC9ADD9A8D
:10047000DE9ADF9A01E014C0D898D998C39ADB9825
:10048000DC98DD9ADE98DF9A02E00AC0D898D99805
:10049000C398DB98DC9ADD9ADE98DF9A03E000C00F
:1004A000E02E02E0C02E08E9202E00EC302EBD9A8E
:1004B00000C02091800000272150100B2093800065
:1004C00000001093810000002F911F9128C12F91EF
:1004D0001F910EC0B902C102A602C80226038702FC
:1004E000EE02DC023403CB02D3022E03E2028D03C0
:1004F0004F935F93452D440FE4EDF4E05527E40F4F
:10050000F51F45915491FA015F914F910994009123
:1005100083000000039500938300000003FF14C0D4
:100520000027009383000000009175000000063949
:1005300058F00F3F49F003950E3F21F000937500EE
:10054000000002C031D7FACF5394E9C00091750082
:100550000000063940F4439403E9401621F00CED05
:10056000401619F004C0D79802C04424D79A539477
:10057000D6C0B89AC19AC29A022FF8D0C0985394A4
:10058000CEC057FD03C056FF01C01BD15394C7C056
:10059000AED35394C4C0B99AC29AC09A032FE6D07E
:1005A000C1985394BCC057FD02C055FD12D153945D
:1005B000B6C008E0502EB3C00AE5701609F0739477
:1005C0005394ADC00FEF201639F00A95201611F0A4
:1005D000239402C05D7FBD985394A1C00F931F93D5
:1005E0003F934F9310916100000030916200000032
:1005F00000918A00000040918B000000341709F040
:1006000003C01017D1F000C00091600000000A3E46
:1006100029F0039500936000000012C000270093AA
:100620006000000001E0100F0027301F30936200CF
:10063000000010936100000003C0577F52FF5F7BF2
:100640004F913F911F910F91539469C0BA9AC19AEB
:10065000C09A042F8BD0C298539461C057FD02C03A
:1006600054FDC1D053945BC0062D003009F042C048
:100670005B7F009175000000063910F453FD0AC03D
:100680000AE000936C00000000936D0000000093EE
:100690006E000FC00091860000000D3650F472E12C
:1006A000A4D2202D73E1A1D2302D71E19ED2402D34
:1006B00020C06F9370916C0098D2202D70916D00C6
:1006C00094D2002D53FF06C06D2D643618F450FDF2
:1006D00001C00F77302F70916E0087D2002D53FF2D
:1006E00006C06D2D50FD02C0643608F00F77402F14
:1006F0006F9111C054607091720077D2202D70916B
:10070000730073D2302D709174006FD2002D53FDA1
:1007100001C00F77402F539402C0552400C06FBF13
:100720006F910F911895A8950F936F936FB79BD109
:100730000027009362000000009361000000009316
:100740006000000090EA5862552480E60091750030
:1007500000000F3F09F003C0CED613D03ED70027CC
:10076000009375006FBF6F910F9118956F936FB7DE
:100770000BBB02FD02C0C39801C0C39A6FBF6F914B
:1007800008950F936F936FB7A8950DE001BD0EE428
:1007900001BDA8956FBF6F910F9108950F936F934F
:1007A0006FB7F894A89500E004BF01B5086101BDDA
:1007B00000E001BD7894000000006FBF6F910F91C1
:1007C00008950F936F936FB702E207B900E003B982
:1007D00014C00F936F936FB755FF0FC007E807B9A9
:1007E00000E003B90AC00F936F936FB754FF05C0C1
:1007F00009EA07B900E103B900C06FBF6F910F911B
:1008000008950F936F936FB700917500000006393C
:1008100008F004C107B10232D1F00738C9F0093A33
:10082000F9F0023A09F0FAC005B100938600000021
:100830005F7D5061002700937B00000000937C00E7
:10084000000000937D00000000E007B9E7C062C02F
:10085000D09AD19ABB9AD39AD49AD59AD69A16C0DE
:1008600000C004B100936700000005B10093680068
:1008700000005F7E53FD05C052FD03C051FD01C065
:1008800002C0506402C05F7B00C0C8C02F933F937A
:10089000CF93DF93C4B1D5B100917E000000D13079
:1008A00028F4C01718F4CC27DD2703C01127C01B7C
:1008B000D10B20917C00000030917D0000002C0FB6
:1008C0003D1F00917B00033029F0039500937B00CE
:1008D000000015C020936500000030936600000002
:1008E000002700937B00000000937C000000009331
:1008F0007D00000002EA07B900E103B906C02093B9
:100900007C00000030937D000000DF91CF913F918B
:100910002F9184C000917F000000013008F07EC05C
:1009200005B10093640000000091640000000539E7
:1009300038F0882790EA0FE500938E0000006EC023
:100940000027009360000000009361000000009306
:100950006200000053FD08C0586080E6062D00309C
:1009600019F00150602E80E683958830C9F02F93EE
:1009700020918E000000821711F02F914FC0293076
:1009800061F02A952A952A952A952A952A952A3042
:1009900008F429E020938E0000002F9188273EC0A4
:1009A0000091640000000D3710F092E82EC001376E
:1009B00038F095E701E0601610F401E0502725C0FB
:1009C000053638F09AE601E0601610F401E0502791
:1009D0001CC00C3580F09EE500918100093AF0F4CE
:1009E00001E0601638F4009176000E3118F000270F
:1009F000009376000AC0053410F090EA0FC003346B
:100A000010F490EA0BC093E409C000918100093A08
:100A100028F40EEF202E00E9302EBD9A00918300BD
:100A2000000002FF01C051D45F7707B1023A21F004
:100A300000E007B906E006B96FBF6F910F911895F6
:100A40000F936F936FB700270ABBB898B998BA98FD
:100A5000BB9800E80BBF06E006B900E705BF6FBF13
:100A60006F910F9108950F936F936FB700E505BFD6
:100A700000E00BBF0BEF0ABBB89AB99ABA9ABB9ABF
:100A80000EE1009376006FBF6F910F9108950F9361
:100A90001F932F933F934F937F938F936F936FB7D2
:100AA0006F93009165001091660020917A0030915B
:100AB00079007727442760E13695279510F4400F99
:100AC000711F77954795379527956A95B9F746959C
:100AD00037952795469537952795469537954695A9
:100AE000379530936900000040936A000000109130
:100AF0006900000000916A00000022273327772751
:100B00008827183C28F4143640F4123358F40FC0E8
:100B100068EC161B64E1260F0AC064E6161B6AE047
:100B2000260F05C062E3161B65E0260F00C01A30D1
:100B300018F01A502395FBCF310F3A3010F03A508D
:100B40002395013028F00A9516E069E1260FEFCFD2
:100B5000D22EF32E50FF03C0209177003AE02436C6
:100B600098F0243618F024567395FBCF2A3018F0ED
:100B70002A508395FBCF70936C00000080936D002A
:100B8000000020936E001AC030936E0000002A30DF
:100B900018F073952A50FBCF50FD07C020936D00CD
:100BA000000070936C00000009C030936C000000DE
:100BB00070936D00000020936E0000006F916FBF76
:100BC0006F918F917F914F913F912F911F910F9135
:100BD0000895C0F9A4B0999282F88090FF89CFC798
:100BE000868EC8AFC68BBF88A3AB0F936F936FB7CA
:100BF0000027E2EDFBE0E70FF01FC8956FBF6F9194
:100C00000F9108956F936FB73EBCC59903C03FDF46
:100C1000C59A02C0C59873D36FBF6F9118953807F6
:100C20003A0746074D075607A607D207E2084409C8
:100C300046074D074F09E80846074D07F408A60781
:100C4000D207E508440946074D074F090007460744
:100C50004D070C07A607D2071207440946074D07A0
:100C60004F09F80846074D0704090809D20741094A
:100C7000440946074D074F0951091707460723073F
:100C800046074D072F07A607D20734074409460732
:100C90004D074F09E90646074D07F506A607D20797
:100CA000FB06440946074D074F09D20646074D0784
:100CB000DE06A607D207E406440946074D074F099A
:100CC000AA0646074D07B6065A07D207C4064409C6
:100CD00046074D074F09930646074D079F06A6078F
:100CE000D207A506440946074D074F0957093F9308
:100CF0002F931F930F936F936FB7062D003009F05A
:100D000003C0923809F0D9C24F935F93402F440F2C
:100D1000EEE1FCE05527E40FF51F45915491FA01EF
:100D20005F914F910994039515E1109372002DE0A6
:100D30002093730011E1109374009927BEC20395AC
:100D4000B0908F000000AB2CB8C20395A0928F002A
:100D50000000B3C2039512E11093720026E12093C4
:100D6000730017E1109374009927A7C20395A09010
:100D70008A000000A0928C000000A0908B00000070
:100D8000A0928D00000099C20395A0908C000000F5
:100D9000A0928A000000A0908D000000A0928B001D
:100DA00000008BC2039512E11093720021E12093A1
:100DB000730015E11093740099277FC2B0908900E9
:100DC0000000AB2C039579C20395A0928900000026
:100DD00074C2039512E11093720021E12093730015
:100DE00010E010937400992768C2B090880000004A
:100DF000AB2C039562C20395A092880000005DC2EF
:100E0000039515E0109372002CE0209373001AE014
:100E100010937400992751C2B09087000000AB2C4A
:100E200003954BC20395A0928700000046C203952C
:100E30002AE02093720000002093730000002093AA
:100E4000740099273AC2039515E0109372002EE0C2
:100E50002093730010E11093740099272EC2B09074
:100E60007800AB2C039529C20395A092780025C287
:100E7000039523C203951BE0109372002CE020938E
:100E800073001AE010937400992717C211E01093B1
:100E90007F0003951127712E10C2172D1A3508F403
:100EA0000CC2112710937F00039507C2B82CA82C01
:100EB000039503C2039510918D0000003F934F935B
:100EC0007F93113038F0113049F0123059F013305F
:100ED00069F010C030E040E070E00CC032E045E066
:100EE00076E008C035E041E072E004C037E046E05B
:100EF00078E000C010918C0000002227143618F012
:100F000014562395FBCF320F22271A3018F01A50AF
:100F10002395FBCF420F4A3008F402C04A50339564
:100F2000710F7A3008F408C07A5043954A3008F4BB
:100F300003C04A50339500C0309372004093730051
:100F4000709374007F914F913F91B7C103951AE060
:100F500010937200000010E01093730000001093D3
:100F6000740000001A2D153630F024E12093720031
:100F70000000119508C02227143628F01456239536
:100F800020937200F9CF1A3048F01A502091730064
:100F900000002395209373000000F5CF1093740098
:100FA00000008BC153FD23C01AE0109372000000B3
:100FB000109373000000109374001F930F9310910F
:100FC000850000918400000001501040123E09F09D
:100FD00006C00F9100270F930FEF1FEF00C0109373
:100FE00085000093840000000F911F9166C1923824
:100FF00039F0953731F09A3629F09E3521F05DC1F0
:1010000003C02DC074C0B2C099271F9316E56116A6
:1010100041F01F91BA1411F003954FC126E0020F61
:101020004CC11F911F933F934F9330918C0040917F
:101030008A000000341709F007C030918D004091FC
:101040008B000000341729F003954F913F911F91B9
:1010500034C14F913F911F9126E0020F2EC11F9383
:101060001CE16116C1F11BE4611681F110E4611607
:1010700041F116E5611651F011E6611611F01F916C
:101080002FC01F913A2D3C3379F12DC01F911F9332
:101090003F934F9311E030918C0040918D00373E8B
:1010A00009F002C0433039F0310F1127411F40933E
:1010B0008D0030938C004F913F911F9199270150E3
:1010C000FCC01F913A2D3A3079F00DC01F913A2D96
:1010D0003F3051F008C01F913A2D333629F003C03C
:1010E0003A2D343609F0A39499270150E6C01F9396
:1010F0001CE1611679F11BE4611639F110E4611607
:10110000F9F016E5611611F01F9129C01F911F9388
:101110003F934F9311E030918C0040918D0032301D
:1011200010F4403039F0311B1127410B40938D00F2
:1011300030938C004F913F911F9199270150BDC072
:101140001F913A2D363F79F00DC01F913A2D313F56
:1011500051F008C01F913A2D3D3929F003C03A2DB6
:10116000313008F0AA9499270150A7C0992780E64A
:101170001F9316E5611629F01F91BA14F1F0025081
:101180009CC01F911F933F934F9330918C004091CF
:101190008A000000341709F007C030918D0040919B
:1011A0008B000000341729F002504F913F911F919E
:1011B00084C04F913F911F9100C00EE100937600D3
:1011C00000277BC003958A2C78C003959A2C75C0A4
:1011D00003951DE01093720020E0209373001AE045
:1011E00010937400992769C0B92CA92C039565C088
:1011F000039515E0109372002EE0209373001AE01F
:1012000010937400992759C00395BC2CAC2C55C081
:1012100003951A2D9927113019F0143021F007C0C9
:101220001395139503C01A951A9500C0A12E0F931C
:1012300001E0E01628F40F91133079F01230B9F084
:101240000F9112E0A12E1EE01093720020E0209377
:1012500073001E2D1093740030C010E010937200C4
:1012600020E1209373001AE01093740026C010E070
:10127000109372002FE0209373001FE0109374000E
:101280001CC00395CA2C19C003951AE01093720074
:101290000000109373000000109374000EC00750FC
:1012A0000CC00EE10093760080E601E006C00EE17E
:1012B0000093760080E600E300C0602E6FBF6F9160
:1012C0000F911F912F913F9108950F936F936FB7D7
:1012D000062D013068F4009175000000063958F4BD
:1012E0009E3509F005C0039500937500000003C00A
:1012F0000027009375006FBF6F910F9108950F93B2
:101300001F932F933F934F937F936F936F936FB779
:101310003D2D2F2D00274427083019F02F0D039560
:10132000FBCF11272A3018F02A501395FBCF032F3B
:10133000330F441F330F441F330F441F300F08F483
:101340004395310F08F4439500271127383C20F0CE
:10135000385C78E2070F05C0343618F0345674E173
:10136000070F353018F035500395FBCF130F1530AC
:1013700018F015500395FBCF413028F0415073E32E
:1013800031E0070FEECF3A3108F0039510E2010F7C
:10139000009377006FBF6F916F917F914F913F9155
:1013A0002F911F910F910895A8950F931F932F933D
:1013B0003F936F936FB70091860000000D3608F0E1
:1013C00001C086C0E199FECF00E00CBB22272FBBF5
:1013D00015E01EBB8DBAE29AE19AE199FECF00E0DA
:1013E0000CBB22272FBB16E01EBB9DBAE29AE19AE6
:1013F00001E0E01658F4E199FECF00E00CBB222793
:101400002FBB14E01EBBCDBAE29AE19AE199FECF60
:1014100000E00CBB22272FBB12E01EBB30917800EE
:1014200000003DBBE29AE19AE199FECF00E00CBBDF
:1014300022272FBB17E01EBB3091870000003DBB69
:10144000E29AE19AE199FECF00E00CBB22272FBB84
:1014500018E01EBB3091880000003DBBE29AE19A83
:10146000E199FECF00E00CBB22272FBB19E01EBB89
:101470003091890000003DBBE29AE19AE199FECFEC
:1014800000E00CBB22272FBB1AE01EBB30918A0064
:1014900000003DBBE29AE19AE199FECF00E00CBB6F
:1014A00022272FBB1BE01EBB30918B0000003DBBF1
:1014B000E29AE19AE199FECF00E00CBB22272FBB14
:1014C0001CE01EBB30918F0000003DBBE29AE19A08
:1014D0006FBF6F913F912F911F910F9108956F935F
:1014E0006FB709D00027902E08E2802E03E0C02EAF
:1014F0006FBF6F9108956F936FB70F930CE00EBBA2
:10150000E09A0DB300938F0000000AE00EBBE09A52
:101510000DB300938A0000000BE00EBBE09A0DB300
:1015200000938B00000009E00EBBE09A0DB300931E
:101530008900000000270FBB0EBBE09A0DB300939B
:10154000790001E00EBBE09A0DB31F931091890062
:1015500000001F3018F01195011B01C0010F1F91F1
:1015600000937A00000002E00EBBE09A0DB30093F6
:101570007800000008E00EBBE09A0DB300938800ED
:10158000000003E00EBBE09A0DB31F93109188009A
:1015900000001F3018F01195010F01C0011B1F91B1
:1015A00000937E00000004E00EBBE09A0DB3C02E55
:1015B00005E00EBBE09A0DB3802E06E00EBBE09A6C
:1015C0000DB3902E07E00EBBE09A0DB30093870099
:1015D00000000F916FBF6F9108950F930FEF00936D
:1015E00080000000009381000000C098C19AC29A58
:1015F000D69AD89AD99AC39ADB9ADC9ADD9ADE9861
:06160000DF9A0F9108952E
:00000001FF
