:020000020000FC
:0E00000012C0189518951895189503C501C1E2
:1000100018951895189510C3A7C0A3C218951895E0
:1000200018951895189501E00EBF0FE50DBF09E86A
:1000300001BF00E808BD000000E008BD58E780E609
:1000400008E0E02E6624552407E008BB06E006B968
:1000500002E007B900E003B901B90ED4BB27A0E65E
:100060000C93A395A03E09F0FBCF0FEF0093850002
:1000700000000093840000000EE100937600000071
:100080000FEF00938600000000E00BBF05BB00E10E
:1000900002B900E103BF0BE003BF06E809BF00E8B7
:1000A00008B98AD207E00FBD0027902E08E2802E03
:1000B00000937800000003E0C02E00270FBB0EBBAA
:1000C000E09A0DB30093790001E00EBBE09A0DB306
:1000D00000937A000DEF202E00EB302EBD9AFAD659
:1000E000789400C00091750000000F3F09F002C035
:1000F00070D226C0523020F157FDF4CF56FD05C016
:1001000055FD03C054FD01C0EDCF07B10030B9F07B
:10011000073809F007C0D098D198BB98D398D498E5
:10012000D598D698506851FD06C00EE806B908E685
:1001300005BF8895D7CF0EE806B90EEC06B9D2CF29
:100140000AED02BF00E00EBD0FE006BFC29AC19AE1
:10015000C09A7FD300E007B904EF05BF00EF05BFE9
:10016000889500E006BFBECF0F931F936F936FB7C4
:10017000A8950EE401BDA89500E00BBF00917600A4
:100180000E3121F00395009376002DC001E080161A
:1001900048F0D81438F00FEF202E05ED302E5260C5
:1001A000BD9A0DC0D91438F40FEF202E05E9302E7A
:1001B0005260BD9A04C0BD985D7F0EEF202E02E014
:1001C000C01689F010917800000004E6100F00912D
:1001D00068000000011708F006C008E9202E00ECB6
:1001E000302EBD9A52600091860000000D3630F42A
:1001F00000EF202E00EE302EBD9A5260506253FD6B
:1002000002C008E0502E6FBF6F911F910F9118959B
:100210000F936F936FB751FD07C052FD05C053FD9B
:1002200003C00CEF02BF02C00AED02BF1F932F9361
:10023000109181000000183AB1F11E3F09F003C08F
:100240000EEF202EBD980E2D013008F007C0133E92
:1002500009F004C018EA1093810025C0A8951E3F3C
:1002600091F0173F29F0163F99F01D3EE9F05BC071
:10027000973209F058C003E2602E00EF202E00E90B
:10028000302EBD9A50C002E207B900E003B94BC05E
:10029000BD98A895C09AC198C29ABB9A09EA07B9B5
:1002A00000E103B940C04DC0A895C09AC19AC29858
:1002B000009168000000043678F0093CB8F00D3D6C
:1002C000F8F40027E02ED898D998C398DB98DC98EA
:1002D000DD98DE9ADF9A26C0D89AD998C398DB9A1F
:1002E000DC9ADD9ADE9ADF9A01E014C0D898D9989A
:1002F000C39ADB98DC98DD9ADE98DF9A02E00AC0A8
:10030000D898D998C398DB98DC9ADD9ADE98DF9A62
:1003100003E000C0E02E02E0C02E08E9202E00EC31
:10032000302EBD9A00C02091800000272150100B74
:100330002093800000001093810000002F911F91F6
:100340000CC12F911F910EC0F301FB01E0010202CD
:100350004402C10128021602520205020D024C029B
:100360001C02AB024F935F93452D440FE8E4F3E08A
:100370005527E40FF51F45915491FA015F914F9174
:10038000099400918300000003950093830000000E
:1003900003FF14C000270093830000000091750044
:1003A0000000063958F00F3F49F003950E3F21F049
:1003B00000937500000002C01AD5FACF5394CDC047
:1003C000009175000000063940F4439403E940169B
:1003D00021F00CED401619F004C0D79802C0442457
:1003E000D79A5394BAC0B89AC19AC29A022FD9D058
:1003F000C0985394B2C057FD03C056FF01C0FCD053
:100400005394ABC042D35394A8C0B99AC29AC09A2D
:10041000032FC7D0C1985394A0C057FD02C055FD0B
:10042000F3D053949AC008E0502E97C00AE5701696
:1004300009F07394539491C00FEF201639F00A9588
:10044000201611F0239402C05D7FBD98539485C09F
:100450001F930091600000001091610000000F3FA9
:1004600011F0039508C0173019F01395002703C049
:10047000577F52FF5F7B1093610000000093600084
:1004800000001F91539469C0BA9AC19AC09A042F70
:1004900088D0C298539461C057FD02C054FDBED0AD
:1004A00053945BC0062D003009F042C05B7F009181
:1004B00075000000063910F453FD0AC00AE00093ED
:1004C0006C00000000936D00000000936E000FC0F0
:1004D0000091860000000D3650F472E18DD2202D7F
:1004E00073E18AD2302D71E187D2402D20C06F9305
:1004F00070916C0081D2202D70916D007DD2002D05
:1005000053FF06C06D2D643618F450FD01C00F77FF
:10051000302F70916E0070D2002D53FF06C06D2DEC
:1005200050FD02C0643608F00F77402F6F9111C064
:1005300054607091720060D2202D709173005CD273
:10054000302D7091740058D2002D53FD01C00F77EB
:10055000402F539402C0552400C06FBF6F910F917C
:100560001895A8950F936F936FB786D100270093C6
:100570006100000000936000000090EA586255247A
:1005800080E60091750000000F3F09F003C074D4AD
:1005900013D0A0D40027009375006FBF6F910F9107
:1005A00018956F936FB70BBB02FD02C0C39801C0D3
:1005B000C39A6FBF6F9108950F936F936FB7A8950C
:1005C0000DE001BD0EE401BDA8956FBF6F910F91C5
:1005D00008950F936F936FB7F894A89500E004BF48
:1005E00001B5086101BD00E001BD78940000000084
:1005F0006FBF6F910F9108950F936F936FB702E2E2
:1006000007B900E003B914C00F936F936FB755FF9C
:100610000FC007E807B900E003B90AC00F936F9352
:100620006FB754FF05C009EA07B900E103B900C07C
:100630006FBF6F910F9108950F936F936FB70091F4
:1006400075000000063908F0F2C007B10232D1F09F
:100650000738C9F0093AF9F0023A09F0E8C005B1E3
:100660000093860000005F7D5061002700937B00AF
:10067000000000937C00000000937D00000000E07B
:1006800007B9D5C062C0D09AD19ABB9AD39AD49AEE
:10069000D59AD69A16C000C004B100936700000036
:1006A00005B10093680000005F7E53FD05C052FD58
:1006B00003C051FD01C002C0506402C05F7B00C096
:1006C000B6C02F933F93CF93DF93C4B1D5B10091C0
:1006D0007E000000D13028F4C01718F4CC27DD27A5
:1006E00003C01127C01BD10B20917C00000030916A
:1006F0007D0000002C0F3D1F00917B00033029F08E
:10070000039500937B00000015C020936500000056
:10071000309366000000002700937B0000000093E8
:100720007C00000000937D00000002EA07B900E1B0
:1007300003B906C020937C00000030937D000000C8
:10074000DF91CF913F912F9172C000917F00000007
:10075000013008F06CC005B1009364000000009106
:1007600064000000053918F0882790EA60C000276F
:1007700000936000000000936100000053FD08C07A
:10078000586080E6062D003019F00150602E80E69A
:100790008395883129F08F3509F049C0882747C0F3
:1007A0000091640000000D3710F092E837C0013767
:1007B00038F095E701E0601610F401E050272EC0F4
:1007C000053638F09AE601E0601610F401E0502793
:1007D00025C00C35C8F09EE500918100093A38F536
:1007E000D81458F4D91448F0109178000000009102
:1007F00068000000011708F011C001E0601618F44D
:100800000027009376000AC0003310F090EA0FC072
:10081000063210F490EA0BC097E209C00091810003
:10082000093A28F40EEF202E00E9302EBD9A0091EF
:100830008300000002FF01C06BD25F7707B1023A6C
:1008400021F000E007B906E006B96FBF6F910F9184
:1008500018950F936F936FB700270ABBB898B99894
:10086000BA98BB9800E80BBF06E006B900E705BFE1
:100870006FBF6F910F9108950F936F936FB700E55E
:1008800005BF00E00BBF0BEF0ABBB89AB99ABA9A42
:10089000BB9A0EE1009376006FBF6F910F910895A0
:1008A0000F931F932F933F934F937F938F936F9348
:1008B0006FB76F93009165001091660020917A00E8
:1008C000309179007727442760E13695279510F419
:1008D000400F711F77954795379527956A95B9F71A
:1008E000469537952795469537952795469537959B
:1008F0004695379530936900000040936A000000E8
:1009000010916900000000916A000000222733273F
:1009100077278827183C28F4143640F4123358F40B
:100920000FC068EC161B64E1260F0AC064E6161BB4
:100930006AE0260F05C062E3161B65E0260F00C0C3
:100940001A3018F01A502395FBCF310F3A3010F0BF
:100950003A502395013028F00A9516E069E1260FF8
:10096000EFCFD22EF32E50FF03C0209177003AE054
:10097000243698F0243618F024567395FBCF2A308D
:1009800018F02A508395FBCF70936C000000809381
:100990006D00000020936E001AC030936E000000BE
:1009A0002A3018F073952A50FBCF50FD07C02093D2
:1009B0006D00000070936C00000009C030936C0063
:1009C000000070936D00000020936E0000006F9196
:1009D0006FBF6F918F917F914F913F912F911F9199
:1009E0000F910895C0F9A4B0999282F88090FF8980
:1009F000CFC7868EC8AFC68B0F936F936FB7002794
:100A0000E4EEF9E0E70FF01FC8956FBF6F910F910B
:100A100008956F936FB73EBCC59903C041DFC59A77
:100A200002C0C5988FD16FBF6F9118957605780574
:100A300084058B0594059805BC050B066D06840599
:100A40008B057806110684058B051D069805BC05E7
:100A50000E066D0684058B057806210684058B0538
:100A60002D063106BC056A066D0684058B057806E1
:100A70007A06610584058B056D059805BC05720530
:100A80006D0684058B0578067A063F932F931F9396
:100A90000F936F936FB7062D003009F003C09238A3
:100AA00009F02EC14F935F93402F440FECE2FAE020
:100AB0005527E40FF51F45915491FA015F914F912D
:100AC0000994039515E0109372002EE020937300B3
:100AD00010E110937400992713C1B0907800AB2CEB
:100AE00003950EC10395A09278000AC1039508C131
:100AF00003951BE0109372002CE0209373001AE022
:100B0000109374009927FCC011E010937F000395A7
:100B10001127712EF5C0172D1A3508F4F1C01127D1
:100B200010937F000395ECC0B82CA82C0395E8C067
:100B3000039510E010937200000010937300000002
:100B4000109373001A2D143640F014562091720041
:100B50000000239520937200F6CF1A3048F01A5007
:100B60002091730000002395209373000000F5CFBF
:100B7000109374000000C4C053FD23C01AE010930A
:100B800072000000109373000000109374001F9314
:100B90000F931091850000918400000001501040D7
:100BA000113E09F006C00F9100270F930FEF1FEFC2
:100BB00000C0109385000093840000000F911F91E6
:100BC0009FC0923839F0953769F09A3691F09E358A
:100BD000B9F096C09927BA1411F0039591C026E098
:100BE000020F8EC03A2D343609F0A3949927015094
:100BF00087C03A2D313008F0AA949927015080C05F
:100C0000992780E6BA1411F002507AC00EE10093E1
:100C10007600002775C003958A2C72C003959A2C24
:100C20006FC003951DE01093720020E020937300C5
:100C30001AE010937400992763C0B92CA92C03956E
:100C40005FC0039515E0109372002EE020937300AF
:100C50001AE010937400992753C00395BC2CAC2C58
:100C60004FC003951A2D9927113019F0143021F037
:100C700007C01395139503C01A951A9500C0A12EAD
:100C80000F9301E0E01628F40F91133079F0123041
:100C9000B9F00F9112E0A12E1EE01093720020E037
:100CA000209373001E2D109374002AC010E010933F
:100CB000720020E1209373001AE01093740020C0AA
:100CC00010E0109372002FE0209373001FE0109348
:100CD000740016C00395CA2C13C003951AE0109334
:100CE000720000001093730000001093740008C09D
:100CF000075006C00EE10093760080E6002700C092
:100D0000602E6FBF6F910F911F912F913F910895AA
:100D10000F936F936FB7062D013068F40091750043
:100D20000000063958F49E3509F005C0039500937C
:100D30007500000003C00027009375006FBF6F911E
:100D40000F9108950F931F932F933F934F937F938A
:100D50006F936F936FB73D2D2F2D002744270830D9
:100D600019F02F0D0395FBCF11272A3018F02A50C8
:100D70001395FBCF032F330F441F330F441F330F43
:100D8000441F300F08F44395310F08F443950027B2
:100D90001127383C20F0385C78E2070F05C0343664
:100DA00018F0345674E1070F353018F035500395BC
:100DB000FBCF130F153018F015500395FBCF4130C2
:100DC00028F0415073E331E0070FEECF3A3108F0DD
:100DD000039510E2010F009377006FBF6F916F9141
:100DE0007F914F913F912F911F910F910895A89559
:100DF0000F931F932F933F936F936FB700918600CC
:100E000000000D3690F1E199FECF00E00CBB2227E7
:100E10002FBB15E01EBB8DBAE29AE19AE199FECF95
:100E200000E00CBB22272FBB16E01EBB9DBAE29A46
:100E3000E19A01E0E01658F4E199FECF00E00CBB26
:100E400022272FBB14E01EBBCDBAE29AE19AE199AA
:100E5000FECF00E00CBB22272FBB12E01EBB30915F
:100E6000780000003DBBE29AE19A6FBF6F913F911D
:100E70002F911F910F9108950F9300270FBB0EBB69
:100E8000E09A0DB30093790001E00EBBE09A0DB338
:100E900000937A00000002E00EBBE09A0DB30093CD
:100EA0007800000003E00EBBE09A0DB300937E00D3
:100EB000000004E00EBBE09A0DB3C02E05E00EBBAF
:100EC000E09A0DB3802E06E00EBBE09A0DB3902E93
:100ED0000F9108950F930FEF00938000000000938F
:100EE00081000000C098C19AC29AD69AD89AD99A1D
:100EF000C39ADB9ADC9ADD9ADE98DF9A0F91089507
:00000001FF
